:1000000012C019C018C017C016C015C014C013C044
:1000100012C00FC110C00FC00EC00DC00CC00BC06D
:100020000AC009C008C011241FBECFE5D4E0DEBF5E
:10003000CDBF02D018C1E4CF10D107D1EDD098D0F8
:1000400054D00FD0FFCF089548656C6C6F20776F48
:10005000726C640048656C6C6F20776F726C640022
:100060000895F0E0E8E407D0C895102D11D0E3958D
:100070000A95D1F70895FF93EF930027C895102DA7
:10008000103019F00395E395F9CFEF91FF910895A2
:10009000B4D0B6D07AD017FDAAD016FD9CD015FDED
:1000A0008ED014FD80D01AD070D013FDA0D012FDD8
:1000B00092D011FD84D010FD76D010D061D001D047
:1000C000089598D0A0D05CD0A4D09B99FECF9ED0AC
:1000D000000000000000000001D008959AD0000048
:1000E00000000000000092D0089596D095D082D0F4
:1000F00087D04BD058D063D0F1DF97D096D095D031
:1001000094D0ECDF8ED0EADF8CD04AD0E7DF89D004
:100110003CD055D0E3DF39D06AD0E0DF31D073D0A6
:10012000D0DF6ED032D0DADF62D0D8DF29D06BD00A
:10013000C8DF66D02AD0D2DF36D0D0DF21D063D05E
:10014000C0DF5ED022D0CADF46D039D0C7DF18D09A
:100150005AD0B7DF55D019D0C1DF49D03CD02FD00D
:1001600022D0BCDF0DD04FD0ACDF4AD055D008959F
:1001700041D046D04BD014D01FD02AD035D00895CE
:1001800009D014D01FD02AD008950AD015D020D07D
:100190002BD00895A098A8980895A098A89A08959B
:1001A000A09AA8980895A09AA89A0895A198A998A5
:1001B0000895A198A99A0895A19AA9980895A19A35
:1001C000A99A0895A298AA980895A298AA9A08951B
:1001D000A29AAA980895A29AAA9A0895A398AB9869
:1001E0000895A398AB9A0895A39AAB980895A39AFB
:1001F000AB9A0895B89AC0980895B89AC09A08958D
:10020000B99AC1980895B99AC19A0895BA9AC298AC
:100210000895BA9AC29A089504E107D00150E9F707
:10022000089524E02030F1F7089528E22030F1F716
:100230000895F8940F930FB70F930BE902BF215065
:100240000F910FBF0F917894189501E003BF0BE950
:1002500002BF01E009BF789408958F9A9798089596
:0A026000FCDF979A0895F894FFCF91
:00000001FF
